{
  "contractName": "FileStorage",
  "abi": [
    {
      "anonymous": false,
      "inputs": [
        {
          "indexed": false,
          "internalType": "string",
          "name": "",
          "type": "string"
        }
      ],
      "name": "status",
      "type": "event"
    },
    {
      "inputs": [
        {
          "internalType": "string",
          "name": "_hash",
          "type": "string"
        },
        {
          "internalType": "string",
          "name": "_fileName",
          "type": "string"
        },
        {
          "internalType": "string",
          "name": "_fileType",
          "type": "string"
        },
        {
          "internalType": "uint256",
          "name": "_date",
          "type": "uint256"
        }
      ],
      "name": "addFile",
      "outputs": [],
      "stateMutability": "nonpayable",
      "type": "function"
    },
    {
      "inputs": [
        {
          "internalType": "uint256",
          "name": "_index",
          "type": "uint256"
        }
      ],
      "name": "getFile",
      "outputs": [
        {
          "internalType": "string",
          "name": "",
          "type": "string"
        },
        {
          "internalType": "string",
          "name": "",
          "type": "string"
        },
        {
          "internalType": "string",
          "name": "",
          "type": "string"
        },
        {
          "internalType": "uint256",
          "name": "",
          "type": "uint256"
        }
      ],
      "stateMutability": "view",
      "type": "function",
      "constant": true
    },
    {
      "inputs": [],
      "name": "getlength",
      "outputs": [
        {
          "internalType": "uint256",
          "name": "",
          "type": "uint256"
        }
      ],
      "stateMutability": "view",
      "type": "function",
      "constant": true
    }
  ],
  "bytecode": "0x608060405234801561001057600080fd5b50610b8e806100206000396000f3fe608060405234801561001057600080fd5b50600436106100415760003560e01c80632bfda313146100465780637a359ccd14610079578063a16d359814610095575b600080fd5b610060600480360381019061005b91906104ae565b6100b3565b604051610070949392919061057a565b60405180910390f35b610093600480360381019061008e9190610709565b61030a565b005b61009d61041b565b6040516100aa91906107c4565b60405180910390f35b60608060606000806000803373ffffffffffffffffffffffffffffffffffffffff1673ffffffffffffffffffffffffffffffffffffffff168152602001908152602001600020868154811061010b5761010a6107df565b5b90600052602060002090600402016040518060800160405290816000820180546101349061083d565b80601f01602080910402602001604051908101604052809291908181526020018280546101609061083d565b80156101ad5780601f10610182576101008083540402835291602001916101ad565b820191906000526020600020905b81548152906001019060200180831161019057829003601f168201915b505050505081526020016001820180546101c69061083d565b80601f01602080910402602001604051908101604052809291908181526020018280546101f29061083d565b801561023f5780601f106102145761010080835404028352916020019161023f565b820191906000526020600020905b81548152906001019060200180831161022257829003601f168201915b505050505081526020016002820180546102589061083d565b80601f01602080910402602001604051908101604052809291908181526020018280546102849061083d565b80156102d15780601f106102a6576101008083540402835291602001916102d1565b820191906000526020600020905b8154815290600101906020018083116102b457829003601f168201915b50505050508152602001600382015481525050905080600001518160200151826040015183606001519450945094509450509193509193565b6000803373ffffffffffffffffffffffffffffffffffffffff1673ffffffffffffffffffffffffffffffffffffffff168152602001908152602001600020604051806080016040528086815260200185815260200184815260200183815250908060018154018082558091505060019003906000526020600020906004020160009091909190915060008201518160000190816103a79190610a1a565b5060208201518160010190816103bd9190610a1a565b5060408201518160020190816103d39190610a1a565b506060820151816003015550507fe8ca64f431a8cfb9e9c33860d1c005f5efdf340d799f119d831935b54620b42460405161040d90610b38565b60405180910390a150505050565b60008060003373ffffffffffffffffffffffffffffffffffffffff1673ffffffffffffffffffffffffffffffffffffffff16815260200190815260200160002080549050905090565b6000604051905090565b600080fd5b600080fd5b6000819050919050565b61048b81610478565b811461049657600080fd5b50565b6000813590506104a881610482565b92915050565b6000602082840312156104c4576104c361046e565b5b60006104d284828501610499565b91505092915050565b600081519050919050565b600082825260208201905092915050565b60005b838110156105155780820151818401526020810190506104fa565b60008484015250505050565b6000601f19601f8301169050919050565b600061053d826104db565b61054781856104e6565b93506105578185602086016104f7565b61056081610521565b840191505092915050565b61057481610478565b82525050565b600060808201905081810360008301526105948187610532565b905081810360208301526105a88186610532565b905081810360408301526105bc8185610532565b90506105cb606083018461056b565b95945050505050565b600080fd5b600080fd5b7f4e487b7100000000000000000000000000000000000000000000000000000000600052604160045260246000fd5b61061682610521565b810181811067ffffffffffffffff82111715610635576106346105de565b5b80604052505050565b6000610648610464565b9050610654828261060d565b919050565b600067ffffffffffffffff821115610674576106736105de565b5b61067d82610521565b9050602081019050919050565b82818337600083830152505050565b60006106ac6106a784610659565b61063e565b9050828152602081018484840111156106c8576106c76105d9565b5b6106d384828561068a565b509392505050565b600082601f8301126106f0576106ef6105d4565b5b8135610700848260208601610699565b91505092915050565b600080600080608085870312156107235761072261046e565b5b600085013567ffffffffffffffff81111561074157610740610473565b5b61074d878288016106db565b945050602085013567ffffffffffffffff81111561076e5761076d610473565b5b61077a878288016106db565b935050604085013567ffffffffffffffff81111561079b5761079a610473565b5b6107a7878288016106db565b92505060606107b887828801610499565b91505092959194509250565b60006020820190506107d9600083018461056b565b92915050565b7f4e487b7100000000000000000000000000000000000000000000000000000000600052603260045260246000fd5b7f4e487b7100000000000000000000000000000000000000000000000000000000600052602260045260246000fd5b6000600282049050600182168061085557607f821691505b6020821081036108685761086761080e565b5b50919050565b60008190508160005260206000209050919050565b60006020601f8301049050919050565b600082821b905092915050565b6000600883026108d07fffffffffffffffffffffffffffffffffffffffffffffffffffffffffffffffff82610893565b6108da8683610893565b95508019841693508086168417925050509392505050565b6000819050919050565b600061091761091261090d84610478565b6108f2565b610478565b9050919050565b6000819050919050565b610931836108fc565b61094561093d8261091e565b8484546108a0565b825550505050565b600090565b61095a61094d565b610965818484610928565b505050565b5b818110156109895761097e600082610952565b60018101905061096b565b5050565b601f8211156109ce5761099f8161086e565b6109a884610883565b810160208510156109b7578190505b6109cb6109c385610883565b83018261096a565b50505b505050565b600082821c905092915050565b60006109f1600019846008026109d3565b1980831691505092915050565b6000610a0a83836109e0565b9150826002028217905092915050565b610a23826104db565b67ffffffffffffffff811115610a3c57610a3b6105de565b5b610a46825461083d565b610a5182828561098d565b600060209050601f831160018114610a845760008415610a72578287015190505b610a7c85826109fe565b865550610ae4565b601f198416610a928661086e565b60005b82811015610aba57848901518255600182019150602085019450602081019050610a95565b86831015610ad75784890151610ad3601f8916826109e0565b8355505b6001600288020188555050505b505050505050565b7f66696c6520616464656400000000000000000000000000000000000000000000600082015250565b6000610b22600a836104e6565b9150610b2d82610aec565b602082019050919050565b60006020820190508181036000830152610b5181610b15565b905091905056fea264697066735822122079a0d92114cd20db2aa03fba68362e453f9d6caab2f65aac9a771a2e17faa31364736f6c63430008110033",
  "immutableReferences": {},
  "source": "// SPDX-License-Identifier: MIT\r\npragma solidity ^0.8.0;\r\n\r\ncontract FileStorage {\r\n\r\n    event status(string);\r\n\r\n    // struct to collect data\r\n    struct File {\r\n        string hash; // hash of ipfs.. consider using bytes\r\n        string fileName; // name of file\r\n        string fileType; // type of file i.e jpeg,mp4,doc etc\r\n        uint256 date; // date of file creation\r\n    }\r\n\r\n    //mapping of address and files that are in address\r\n    mapping(address => File[]) files;\r\n\r\n    function addFile(string memory _hash, string memory _fileName, string memory _fileType, uint _date) public {\r\n        files[msg.sender].push(File({hash: _hash, fileName: _fileName, fileType: _fileType, date: _date}));\r\n        //push input data to mapping of address to struct\r\n        emit status(\"file added\");\r\n    }\r\n\r\n    function getFile(uint256 _index) public view returns (string memory, string memory, string memory, uint256){\r\n        // get file from mapping of address to array of struct\r\n        File memory file = files[msg.sender][_index];\r\n        return (file.hash, file.fileName, file.fileType, file.date);\r\n    }\r\n\r\n    function getlength() public view returns (uint256) {\r\n        // get length and iterate for each file and get the index for that file\r\n        return files[msg.sender].length;\r\n    }\r\n}",
  "sourcePath": "C:\\Users\\endur\\Desktop\\EmClickz\\DAPPs\\Dapp_IPFS_Storage\\truffle\\contracts\\fileStorage.sol",
  "compiler": {
    "name": "solc",
    "version": "0.8.17+commit.8df45f5f.Emscripten.clang"
  },
  "schemaVersion": "3.4.11",
  "updatedAt": "2023-01-24T12:49:42.205Z",
  "networkType": "ethereum",
  "devdoc": {
    "kind": "dev",
    "methods": {},
    "version": 1
  },
  "userdoc": {
    "kind": "user",
    "methods": {},
    "version": 1
  }
}